:1000000089C00000A3C00000A1C000009FC0000084
:100010009DC000009BC0000099C0000097C0000078
:1000200095C000003AC1000042C1000005C40000B4
:10003000ADC400008BC0000089C0000087C0000074
:1000400085C0000083C0000081C000007FC00000A8
:100050007DC000007BC0000079C00000F3C200003A
:1000600075C0000073C0000071C000006FC00000C8
:100070006DC000002B0547053806470538067F058B
:10008000A3053806F6050906280349004300530076
:1000900052004C0020005200520041004D00200050
:1000A000540065007300740063006800690070000C
:1000B00000000C0349004300530052004C000000B4
:1000C0000403090409023E00020100C032090400D1
:1000D00000010202010005240001100424020605AB
:1000E00024060001070582030800FF09040100023D
:1000F0000A000000070504024000010705830240D2
:1001000000011201100102000008EB034B20010066
:100110000102DC0111241FBECFEFD2E0DEBFCDBF54
:1001200011E0A0E0B1E0EAE5F1E102C005900D9236
:10013000AE31B107D9F722E0AEE1B1E001C01D92C6
:10014000A637B207E1F7B8D10C94AB0859CFFC0140
:10015000E058FF4FA081B1816C93A081B1819D01D6
:100160002F5F3F4F318320832E173F0721F41296D4
:100170009C938E9311972FB7F894FC01EC57FF4F87
:10018000808191810196918380832FBF0895DC0146
:10019000AE57BF4FED91FC91119741911196FC9391
:1001A000EE939C0120583F4FE217F30711F48D9313
:1001B0009C935FB7F894FC01EC57FF4F208131818D
:1001C00021503109318320835FBF842F0895519AD4
:1001D000509A599A589A5998589808955998589AEF
:1001E000599A51985098089527E030E090E0AC017A
:1001F000022E02C0559547950A94E2F740FF02C0CF
:10020000599A01C05998589A58982150310978F74D
:10021000599A5198589A89B15898519A86958170EF
:1002200008950F931F93CF93DF93182F062FD42F8A
:10023000CEDF88E7D9DF812FD7DFC9DF89E7D4DFB9
:10024000599A519827E030E0C0E041E050E0589AD8
:10025000499B07C0CA01022E01C0880F0A94EAF721
:1002600002C080E090E0C82B58982150310978F7FF
:100270005998519A589A5898599AB0DFA8DF88E748
:10028000B3DF812FB1DF8D2F80958C23802BACDFE6
:10029000DF91CF911F910F91A1CF1F920F920FB6B7
:1002A0000F9211240F900FBE0F901F9018951F9260
:1002B0000F920FB60F9211242F933F934F935F939A
:1002C0006F937F938F939F93AF93BF93EF93FF931E
:1002D000329B28C04FE163E18AE0A3DF4FE168E190
:1002E0008EE09FDF4FE16DE18CE09BDF4FE16BE043
:1002F00080E197DF44E064E085E093DF44E064E080
:1003000086E08FDF40E860E884E08BDF40E860E86B
:1003100081E087DF40E860E882E083DF40E860E872
:1003200083E019C0329918C040E860E081E079DFCD
:1003300040E860E082E075DF40E860E083E071DF84
:1003400044E060E085E06DDF44E060E086E069DF86
:1003500040E860E084E065DFFF91EF91BF91AF91ED
:100360009F918F917F916F915F914F913F912F91CD
:100370000F900FBE0F901F90189584B7877F84BF92
:100380000FB6F894A8958091600088618093600012
:10039000109260000FBE80E9809361002FB7F8943F
:1003A00086EE91E0909367028093660290936902D3
:1003B000809368022FBF2FB7F89480E691E0909366
:1003C000E1018093E0019093E3018093E2012FBF6C
:1003D00078942C9A249A2D9A259A2E9A269A5F9A86
:1003E000579A5E9A569A19D287E690E09093CD007C
:1003F0008093CC0086E08093CA001092C80088E108
:100400008093C900539A5A9A84B1866084B984B1A2
:10041000867F84B985B1896085B98CE58CBD8DB541
:1004200081608DBD469A3E9A479A3F9A84E085BD89
:100430008BB180638BB98AB180638AB9429A3A984A
:10044000449A3C98459A3D982F9A27988091680045
:10045000816080936800809168008260809368006A
:1004600080916C00886080936C002D9883E28EBD33
:100470000DB407FEFDCF82EA8EBD0DB407FEFDCFA1
:100480002D9A95B180E4982795B995B1892785B9BA
:100490002D9886E38EBD0DB407FEFDCF8FE08EBD97
:1004A0000DB407FEFDCF2D9A95B180E4982795B93C
:1004B00095B1892785B9089560DF13E02FB7F894C7
:1004C00080916A0290916B022FBF8038910571F084
:1004D00080E091E0EDD5EC0197FD08C0682F86EE35
:1004E00091E035DE6C2F80E691E031DE8FB7F89435
:1004F000C091E401D091E5018FBFA89903C0C13636
:10050000D10548F1A89A8091E4019091E501892BE9
:1005100019F05D9810931E01209749F080E691E054
:1005200036DE682F80E091E064D52197F5CF809189
:100530001E01882331F0815080931E01811101C07A
:100540005D9A80915F01882331F0815080935F0133
:10055000811101C05C9A2FB7F89480916A02909142
:100560006B022FBF892B61F086EE91E010DE909137
:10057000C80095FFFCCF8093CE005C9810935F017C
:1005800080E091E087D56CD499CF80E091E0EAC417
:1005900080E091E077C4CF93DF93EC011092C90023
:1005A0002F85388949895A89DA01C901B695A795F5
:1005B00097958795BC01CD0160587B47814E9F4F31
:1005C000A2D5215031093093CD002093CC008C89E5
:1005D000813021F0823021F480E203C080E301C049
:1005E00080E09B89923009F488609D89973031F0D2
:1005F000983031F0963029F4826003C0846001C0E5
:1006000086608093CA0082E08093C80088E9809366
:10061000C900DF91CF910895CF93DF93FC018585C9
:1006200080FF0CC0C6E1D1E0699180E091E0E1D4A7
:10063000F1E0CC31DF07C1F75F9801C05F9ADF912D
:10064000CF9108951F920F920FB60F9211242F93FE
:100650003F934F935F936F937F938F939F93AF934A
:10066000BF93EF93FF936091CE0080E691E06FDD42
:10067000FF91EF91BF91AF919F918F917F916F917A
:100680005F914F913F912F910F900FBE0F901F9050
:100690001895292F33272230310559F023303105A1
:1006A00069F021303105E9F482E190E022E031E0A7
:1006B0001CC08EE390E024EC30E017C09927813015
:1006C000910549F028F0029761F4E8E8F0E005C0F0
:1006D000E0ECF0E002C0E2EBF0E0849190E09F01FA
:1006E00004C080E090E020E030E0FA013183208314
:1006F00008958093E900EBEEF0E0808181608083D3
:10070000EDEEF0E010826093EC0040838091EE000B
:10071000881F8827881F089580916E0287FF0FC069
:100720008091E80082FD04C08EB38111F9CF10C022
:100730008091E8008B770AC08EB3882349F08091BE
:10074000E80080FFF9CF8091E8008E778093E80081
:1007500008954091E4005091E50085E69091EC0009
:1007600090FF05C09091E80090FF05C01AC09091DD
:10077000E80092FD16C09EB39923A9F09530A9F028
:100780009091EB0095FD13C02091E4003091E500BD
:100790002417350719F3815011F0A901DFCF84E048
:1007A000089580E0089582E0089583E0089581E04F
:1007B00008953CD03ED08091D800982F9F77909399
:1007C000D80080688093D80084E089BD89B58260B4
:1007D00089BD09B400FEFDCF8091D8008F7D809344
:1007E000D8001EBA10926C0242E060E080E081DF27
:1007F0008091E1008E7F8093E1008091E200816032
:100800008093E2008091E20088608093E200809112
:10081000E0008E7F8093E0000895E3E6F0E08081C1
:100820008E7F808381E080936D02C3CF1092E200BF
:1008300008951092E10008951F920F920FB60F9243
:1008400011242F933F934F935F936F937F938F93D5
:100850009F93AF93BF93EF93FF938091E10080FF4D
:100860001BC08091E20080FF17C08091E1008E7F65
:100870008093E1008091E2008E7F8093E20080917E
:10088000E20080618093E2008091D80080628093D2
:10089000D80019BC1EBAF9D18091E10084FF2DC0A7
:1008A0008091E20084FF29C084E089BD89B582601F
:1008B00089BD09B400FEFDCF8091D8008F7D809363
:1008C000D8008091E1008F7E8093E1008091E2006A
:1008D0008F7E8093E2008091E20081608093E2004D
:1008E00080916C02811106C08091E30087FD02C0F7
:1008F00081E001C084E08EBBC8D18091E10083FF1C
:1009000026C08091E20083FF22C08091E100877FB2
:100910008093E10082E08EBB10926C028091E10036
:100920008E7F8093E1008091E2008E7F8093E200D1
:100930008091E20080618093E20042E060E080E02C
:10094000D8DE8091F00088608093F0009ED1809185
:10095000E10082FF0AC08091E20082FF06C0809120
:10096000E1008B7F8093E10090D1FF91EF91BF91E7
:10097000AF919F918F917F916F915F914F913F9137
:100980002F910F900FBE0F901F9018951F920F92EE
:100990000FB60F921124FF920F931F932F933F9343
:1009A0004F935F936F937F938F939F93AF93BF9377
:1009B000CF93DF93EF93FF93C9EED0E088818770E8
:1009C000F82E188200EF10E0F8018081877F808385
:1009D00078941DD0F8941882F80180818860808313
:1009E000F882FF91EF91DF91CF91BF91AF919F91ED
:1009F0008F917F916F915F914F913F912F911F91B7
:100A00000F91FF900F900FBE0F901F9018950F93AE
:100A10001F93CF93DF93CDB7DEB7AA970FB6F894A5
:100A2000DEBF0FBECDBFEEE6F2E086E792E020919A
:100A3000F10021938E179F07D1F780916E0290915C
:100A40006F02492F50E04A30510508F011C1FA01F8
:100A5000E65CFF4F7AC3803809F4FBC0823809F0A6
:100A600007C18091720287708093E9008091EB004A
:100A70001092E9009091E800977F9093E80085FB41
:100A8000882780F98093F1001092F100BBC0282FD5
:100A90002D7F09F0EDC0823009F0DBC0809170023B
:100AA000811127C080917202877009F4D2C08093AF
:100AB000E9002091EB0020FF1CC0933021F48091CD
:100AC000EB00806214C09091EB0090619093EB007A
:100AD00021E030E0A90102C0440F551F8A95E2F7DA
:100AE0004093EA001092EA008091EB0088608093C6
:100AF000EB001092E9008091E800877F86C08111A9
:100B0000B7C0109170021F770FB7F8948091E8007A
:100B1000877F8093E80000DE8091E80080FFFCCFB3
:100B2000111102C082E001C083E08EBB8091E3001E
:100B30008078182B1093E3008091E3008068809305
:100B4000E3000FBF86C08058823008F091C08091CA
:100B50007002909171028C3D53E0950779F583E026
:100B60008A838AE289833FB7F894DE01139690E086
:100B70002EE041E2E22FF0E040935700E49190FF35
:100B800003C0E295EF702F5FEF7080E38E0F8A3322
:100B900010F0E95C01C0E82FF0E0ED93FD939F5F5A
:100BA000943141F73FBF8091E800877F8093E80050
:100BB0006AE270E0CE01019669D012C0AE014F5FCB
:100BC0005F4F6091720265DDBC01892B09F441C061
:100BD0009091E800977F9093E80089819A81AED048
:100BE0008091E8008B778093E80033C0803809F06B
:100BF0003FC08091E800877F8093E80080916C027D
:100C00008093F1008091E8008E778093E80084DD86
:100C100020C081112DC0809170029091710299279E
:100C20000297BCF48091E800877F8093E800809170
:100C3000700280936C0270DD80916C02811106C09D
:100C40008091E30087FD02C081E001C084E08EBB9B
:100C50009CDC8091E80083FF0DC08091EB008062F6
:100C60008093EB008091E800877F8093E80002C0CA
:100C70008FDCEFCFAA960FB6F894DEBF0FBECDBFC4
:100C8000DF91CF911F910F910895089520917402E3
:100C9000309175022617370748F06115710539F450
:100CA0002091E8002E772093E80001C0B90140E0D0
:100CB0006115710579F12EB32223E1F12530E1F1BF
:100CC0002091E80023FD34C02091E80022FD2AC0D5
:100CD0002091E80020FFECCF2091F20030E0FC01F1
:100CE000CF016115710559F02830310540F481912B
:100CF0008093F100615071092F5F3F4FF1CF41E0C8
:100D00002830310509F040E02091E8002E7720934B
:100D1000E800CECF4111CFCF05C08EB3882351F06C
:100D2000853051F08091E80082FFF7CF80E0089590
:100D300081E0089582E0089583E00895209174028F
:100D4000309175022617370748F06115710539F49F
:100D50002091E8002E772093E80001C0B90140E01F
:100D60006115710591F12EB3222309F43EC025309F
:100D700009F43DC02091E80023FD35C02091E80032
:100D800022FD2BC02091E80020FFEACF2091F20045
:100D900030E0FC01CF016115710561F028303105AB
:100DA00048F484918093F100615071092F5F3F4FA7
:100DB0003196F0CF41E02830310509F040E0209134
:100DC000E8002E772093E800CBCF4111CCCF05C0AF
:100DD0008EB3882351F0853051F08091E80082FF76
:100DE000F7CF80E0089581E0089582E0089583E0E0
:100DF00008956115710529F42091E8002B7720935F
:100E0000E8006115710501F12EB3222329F1253087
:100E100029F12091E80023FD1DC02091E80022FF68
:100E2000F0CF2091F200222339F301962091F100B6
:100E3000FC01319720836150710999F7DDCF8EB3A2
:100E4000882351F0853051F08091E80080FFF7CF82
:100E500080E0089581E0089582E0089583E0089598
:100E6000CF938EB3882359F0C091E900C7701092D8
:100E7000E9008091E80083FDCADDC093E900CF91CD
:100E800008950895CF93DF932091E80023FF67C072
:100E9000FC01208130E040917202509173024217B0
:100EA000530709F05CC0EC0180916F02813251F070
:100EB00018F48032E1F053C0823281F1833209F4B8
:100EC0003EC04DC080916E02813A09F048C08091C9
:100ED000E800877F8093E80067E070E0CF010F961D
:100EE000D5DE8091E8008B778093E80038C0809150
:100EF0006E028132A1F58091E800877F8093E8003F
:100F000067E070E0CF010F9674DF8091E8008E7784
:100F10008093E800CE01DF91CF913DCB80916E02AE
:100F20008132E9F48091E800877F8093E800F4DB68
:100F3000809170028D87CE01DF91CF916DCB809132
:100F40006E02813261F48091E800877F8093E8002F
:100F5000E3DB60917002CE01DF91CF9192CFDF9100
:100F6000CF9108951F93CF93DF93EC01FC013D9641
:100F700089E0DF011D928A95E9F711E089818113EB
:100F800005C0EA81FB818C8191E007C08D818113CE
:100F900006C0EE81FF81888590E062E00DC0898502
:100FA000811729F01F5F153049F781E01EC0EA85DF
:100FB000FB858C8591E063E0811184E028E030E0DE
:100FC00040E02E173F0720F44F5F220F331FF9CF69
:100FD0004295407F8260482B6295660F660F607C69
:100FE000692B812F86DB8111DDCFDF91CF911F919E
:100FF00008950F931F93CF932EB32430F1F4FC0187
:101000000785108921893289012B022B032BA9F036
:10101000C62F81818093E9008091E80085FF04C09C
:10102000C093F10080E00AC08091E8008E77809341
:10103000E8008FDB8823A1F301C082E0CF911F91EC
:101040000F9108952EB3243019F5FC01478550897E
:1010500061897289452B462B472BD1F08181809382
:10106000E9008091F200882389F09091E800809156
:10107000E8008E778093E80095FD08C06ADB811157
:1010800008C08091E8008E778093E80080E00895A2
:1010900082E008952EB3243051F4FC014785508935
:1010A00061897289452B462B472B09F0CBCF0895D8
:1010B0002EB3243019F08FEF9FEF0895FC01478580
:1010C000508961897289452B462B472BA1F3858175
:1010D0008093E9008091E80082FFEDCF8091F200DB
:1010E000882321F02091F10030E002C02FEF3FEF84
:1010F0008091F200811105C08091E8008B77809388
:10110000E800C9010895A1E21A2EAA1BBB1BFD012C
:101110000DC0AA1FBB1FEE1FFF1FA217B307E407D6
:10112000F50720F0A21BB30BE40BF50B661F771F2E
:10113000881F991F1A9469F760957095809590950E
:101140009B01AC01BD01CF010895EE0FFF1F05907B
:0A115000F491E02D0994F894FFCF0C
:10115A0000034000000440000002080000000000F4
:0E116A00000000000000494353524C3E0000BC
:00000001FF
